{
  "_format": "hh-sol-artifact-1",
  "contractName": "Valuation",
  "sourceName": "contracts/Valuation.sol",
  "abi": [
    {
      "anonymous": false,
      "inputs": [
        {
          "indexed": true,
          "internalType": "address",
          "name": "contractAddress",
          "type": "address"
        },
        {
          "indexed": true,
          "internalType": "uint256",
          "name": "tokenId",
          "type": "uint256"
        },
        {
          "indexed": false,
          "internalType": "uint256",
          "name": "value",
          "type": "uint256"
        }
      ],
      "name": "ValuationSet",
      "type": "event"
    },
    {
      "inputs": [
        {
          "internalType": "address",
          "name": "contractAddress",
          "type": "address"
        },
        {
          "internalType": "uint256",
          "name": "tokenId",
          "type": "uint256"
        }
      ],
      "name": "getValuation",
      "outputs": [
        {
          "internalType": "uint256",
          "name": "",
          "type": "uint256"
        }
      ],
      "stateMutability": "view",
      "type": "function"
    },
    {
      "inputs": [
        {
          "internalType": "address",
          "name": "contractAddress",
          "type": "address"
        },
        {
          "internalType": "uint256",
          "name": "tokenId",
          "type": "uint256"
        },
        {
          "internalType": "uint256",
          "name": "value",
          "type": "uint256"
        }
      ],
      "name": "setValuation",
      "outputs": [],
      "stateMutability": "nonpayable",
      "type": "function"
    },
    {
      "inputs": [
        {
          "internalType": "bytes32",
          "name": "",
          "type": "bytes32"
        }
      ],
      "name": "valuations",
      "outputs": [
        {
          "internalType": "uint256",
          "name": "",
          "type": "uint256"
        }
      ],
      "stateMutability": "view",
      "type": "function"
    }
  ],
  "bytecode": "0x608060405234801561001057600080fd5b50610441806100206000396000f3fe608060405234801561001057600080fd5b50600436106100415760003560e01c8063395a2b531461004657806340f78f60146100765780636305864614610092575b600080fd5b610060600480360381019061005b91906101f8565b6100c2565b60405161006d919061023e565b60405180910390f35b610090600480360381019061008b91906102e3565b6100da565b005b6100ac60048036038101906100a79190610336565b610173565b6040516100b9919061023e565b60405180910390f35b60006020528060005260406000206000915090505481565b600083836040516020016100ef9291906103df565b6040516020818303038152906040528051906020012090508160008083815260200190815260200160002081905550828473ffffffffffffffffffffffffffffffffffffffff167f519f35156031a4141ad1dc3d49c3db72e9d6610abe8ba886638b5f57381c04c884604051610165919061023e565b60405180910390a350505050565b60008083836040516020016101899291906103df565b6040516020818303038152906040528051906020012090506000808281526020019081526020016000205491505092915050565b600080fd5b6000819050919050565b6101d5816101c2565b81146101e057600080fd5b50565b6000813590506101f2816101cc565b92915050565b60006020828403121561020e5761020d6101bd565b5b600061021c848285016101e3565b91505092915050565b6000819050919050565b61023881610225565b82525050565b6000602082019050610253600083018461022f565b92915050565b600073ffffffffffffffffffffffffffffffffffffffff82169050919050565b600061028482610259565b9050919050565b61029481610279565b811461029f57600080fd5b50565b6000813590506102b18161028b565b92915050565b6102c081610225565b81146102cb57600080fd5b50565b6000813590506102dd816102b7565b92915050565b6000806000606084860312156102fc576102fb6101bd565b5b600061030a868287016102a2565b935050602061031b868287016102ce565b925050604061032c868287016102ce565b9150509250925092565b6000806040838503121561034d5761034c6101bd565b5b600061035b858286016102a2565b925050602061036c858286016102ce565b9150509250929050565b60008160601b9050919050565b600061038e82610376565b9050919050565b60006103a082610383565b9050919050565b6103b86103b382610279565b610395565b82525050565b6000819050919050565b6103d96103d482610225565b6103be565b82525050565b60006103eb82856103a7565b6014820191506103fb82846103c8565b602082019150819050939250505056fea2646970667358221220e7e409df57210284b0169c036180ae7726cd0e8c8777742694ec9018555dccae64736f6c63430008130033",
  "linkReferences": {},
  "deployedLinkReferences": {}
}